:1000000003308A00B92B00000A108A100A118207F7
:1000100028340C3401340634202B4F26D430E732F8
:10002000A01EA01246102005202AC52670103D10E3
:100030002523201000003A308400831300080319A0
:100040002F280130F800F701F70B2428F80B23289C
:100050004A30F700F70B2A282D28800B21280800AA
:1000600041183428081235280816831608128312FE
:10007000C1183C2888123D288816831688128312DE
:1000800041194428081345280817831608138312BA
:10009000C1194C2888134D2888178316881300002F
:1000A0008312081583160811552883120811831628
:1000B000081183120800C20183160816003083124B
:1000C000081A0130C2048316881600308312881A79
:1000D0000130F7000310F70D7708C20483160817E4
:1000E00000308312081B0130F700F70DF70DFC30CC
:1000F000F7057708C2048316881700308312881B1F
:100100000130F700F70DF70DF70DF830F705770818
:10011000C2044208F800080083160811081088106D
:1001200083120810831608100816881608178817F7
:100130008312881483168810000083120815831612
:100140000811000083125B207808C1000811831693
:10015000081100008312081583160811000083128D
:100160005B207808C0000811831608110812881255
:10017000081388138312410EF700F030F705770853
:100180004004F8007808C000C01FC82883169428CF
:10019000BE08031DCD280810CE28081483160810A9
:1001A0000000831288108316881000008312081143
:1001B0008316081183123F0EC0000F30C00540089F
:1001C000C10030203F080F39C000C10030200800B6
:1001D0008316081288120813881308110810881053
:1001E0008312081083160810831288108316881053
:1001F00083120811831608110F308312BA001B20D6
:100200000130AC002C08033C031C0E290330C10054
:1002100030200530BA001B20AC0A02290230C10090
:1002200030200530BA001B20AC012C08033C031C15
:1002300022292C080420AD00BE012D08BF008C200F
:10024000AC0A15298A110A12DE2B8E30F7002D0810
:10025000F8002C08F900FA01F808031D392979087B
:10026000F800F9010830F702F808031D3929F701F1
:1002700041290310F81B4029F90DF80DF70339291E
:10028000F8138A110A12F92B39080319B429C1008D
:100290003D080319B429C107031855297F30C1024D
:1002A000031CB4290319B42959298130C107031843
:1002B000B4294108F700F801F901FA013A08C5002C
:1002C000C5173B08C4003C08C3001830C100C20178
:1002D000431C82294008FA07031C7429F90A031DEC
:1002E0007429F80A0319C2173F08F907031C7B2970
:1002F000F80A0319C2173E08BB00BB173B08F807F2
:100300000318C217C20DF80CF90CFA0CC50CC40C7A
:10031000C30C0310C10B67290130F7070318B42978
:10032000F81B9929C50DFA0DF90DF80DF7030319FE
:10033000B429C51FAA29FA0A031DAA29F90A031D0F
:10034000AA29F80A031DAA29F80CF90CFA0CF70AD5
:100350000319B4293A08C2003E08C206C21FB229D6
:10036000F817B829F813B829F701F801F901FA01CB
:1003700008003B0BBC29BF294030BC00C029BC0190
:1003800001303A02BC073C088038BD00BE013D0880
:10039000BF008C2008003908073A0319D9290B3A05
:1003A0000319DE29063A0319E629023A0319EC2952
:1003B000F1290130BA00BB00B921F629BE01013094
:1003C000BF008C200230BA001B20F6290130BA0091
:1003D0000230BB00B921F629BE011030BF008C20CD
:1003E000F6290130BE003908BF008C2008000B0838
:1003F000AD008B13831603178C170C14000000003C
:100400000318292A83120C087F390313AE0003173F
:100410000D080313AF0003170F080313B0002E08D5
:10042000B900CB212F0803178D00031330080317E1
:100430008F0083168C170C14000000008312031326
:10044000AC0B232A262A83160317292A482A831647
:10045000031783120C0D0E0D7F390313AE00031723
:100460000D080313AF0003170F080313B0002E0885
:10047000B900CB212F0803178D0003133008031791
:100480008F008D0A03198F0A03100313AC0BFA298E
:10049000AD1B8B1708008318502A4130840083134A
:1004A000F701F801F901FA01C101C201C301C40158
:1004B00040083F043E043D0403198E2A2030C50045
:1004C0000310B90DBA0DBB0DBC0DC10DC20DC30D8E
:1004D000C40D40084402031D772A3F084302031D50
:1004E000772A3E084202031D772A3D084102031C79
:1004F000882A3D08C1023E08031C3E0FC2023F0885
:10050000031C3F0FC3024008031C400FC402031426
:10051000F70DF80DF90DFA0DC50B602A41088000A2
:10052000840A42088000840A43088000840A440840
:10053000800008000408B1003008B3000319B92A8C
:100540002F08BC002E08BB002D08BA002C08B900EB
:10055000C001BF012030BE008230BD0044217A08B6
:10056000AF007908AE007808AD007708AC00B30B97
:10057000A02A2F08BC002E08BB002D08BA002C08AA
:10058000B9003908B63CB900FA013A08BD00BA17FB
:100590000310BA0CBB0CBC0CFA0CF90CF80CF70CE1
:1005A000B90BC82ABD1FDF2AF709F809F909FA09AA
:1005B000F70A0319F80A0319F90A0319FA0A7A085B
:1005C000AF007908AE007808AD007708AC00AF1F27
:1005D000F62AB103B116AC09AD09AE09AF09AC0AF0
:1005E0000319AD0A0319AE0A0319AF0A3B30B8006C
:1005F0009A30B700CA30B600B5010A30B3003008EF
:100600000319B10A83142C30840083132F08BC0013
:100610002E08BB002D08BA002C08B9003808C0000D
:100620003708BF003608BE003508BD004B227808E9
:10063000F708031D2E2B300A330203192E2B310825
:100640000319302B0F3933020319282B0318602BA1
:10065000B11B602B311B302B20305C2B2030B105BF
:10066000B11E3E2BB1123008031DB1037708B10053
:100670002D30B900CB213108F700B1013008330229
:10068000031D4C2B7708B1002E30B900CB21310867
:10069000F7002030B10500303030B11E5C2BB112B4
:1006A0003008031DB1037708B1002D30B900CB210C
:1006B0003108F700B1013030F7077708B900CB21D6
:1006C00083103808BC003708BB003608BA0035086C
:1006D000B900C001BF01BE010A30BD004B227A083B
:1006E000B8007908B7007808B6007708B500B30BF2
:1006F000022B08002D08B4003108B406B41F852B66
:1007000003110310AD1B0314B82B2D08B4003008DF
:10071000B5002C08B5020319932BB41FB82B03089E
:10072000013A8300B82B3108B5002D08B502031932
:100730009F2BB41FB82B0308013A8300B82B320853
:10074000B5002E08B5020319AB2BB41FB82B030854
:10075000013A8300B82B3308B5002F08B5020319FE
:10076000B72BB41FB82B0308013A8300B82B031032
:10077000080003081F39830083161F149F141F15D8
:100780009F1107309C0083138312A101A301A201D2
:10079000A701A601A501A401AB01AA01A901A80115
:1007A00083161F109F101F159F111F1383121F17F1
:1007B0009F1783169F1783121F14E8280030F80034
:1007C0001F08C73978049F00A108031DEB2BA10166
:1007D0001F1DA10AE42B1F151F19EC2B83161E08E1
:1007E0008312A2001E08A3002308AD002208AC005B
:1007F00025297A08BC007908BB007808BA00770878
:10080000B9006830C000E830BF001F30BE0077304C
:10081000BD0044217A08A7007908A6007808A50041
:100820007708A4002708BC002608BB002508BA00EA
:100830002408B900C001BF014830BE008530BD00AA
:1008400044217A08AB007908AA007808A900770843
:10085000A8000C3003178D0000308F0003100B3000
:100860000313AC00F721893084002708AF00260865
:10087000AE002508AD002408AC000230B0009A227A
:10088000123003178D0000308F0003140B30031358
:10089000AC00F721893084002B08AF002A08AE0095
:1008A0002908AD002808AC000230B0009A222030A0
:1008B000B900CB212030B900CB21C830BA001B20B1
:1008C000AF01AE015030AD008330AC002B08B30057
:1008D0002A08B2002908B1002808B0007A23031CB6
:1008E0007A2C831606108312061483168610831240
:1008F00086109C2C2B08AF002A08AE002908AD00FA
:100900002808AC00B301B2014030B1008330B00020
:100910007A23031C942C8316061083120610831668
:100920008610831286149C2C8316061083120610E0
:100930008316861083128610C830BA001B20DE2B67
:02094000630052
:02400E00313F40
:00000001FF
;PIC16F877A
;CRC=426F  CREATED="12-Aug-21 22:22"
